{"abi":[{"type":"constructor","inputs":[{"name":"name","type":"string","internalType":"string"},{"name":"symbol","type":"string","internalType":"string"}],"stateMutability":"nonpayable"},{"type":"function","name":"approve","inputs":[{"name":"to","type":"address","internalType":"address"},{"name":"tokenId","type":"uint256","internalType":"uint256"}],"outputs":[],"stateMutability":"nonpayable"},{"type":"function","name":"balanceOf","inputs":[{"name":"owner","type":"address","internalType":"address"}],"outputs":[{"name":"","type":"uint256","internalType":"uint256"}],"stateMutability":"view"},{"type":"function","name":"getApproved","inputs":[{"name":"tokenId","type":"uint256","internalType":"uint256"}],"outputs":[{"name":"","type":"address","internalType":"address"}],"stateMutability":"view"},{"type":"function","name":"getCounterToken","inputs":[],"outputs":[{"name":"","type":"uint256","internalType":"uint256"}],"stateMutability":"view"},{"type":"function","name":"isApprovedForAll","inputs":[{"name":"owner","type":"address","internalType":"address"},{"name":"operator","type":"address","internalType":"address"}],"outputs":[{"name":"","type":"bool","internalType":"bool"}],"stateMutability":"view"},{"type":"function","name":"mintNft","inputs":[{"name":"_tokenURI","type":"string","internalType":"string"}],"outputs":[],"stateMutability":"nonpayable"},{"type":"function","name":"name","inputs":[],"outputs":[{"name":"","type":"string","internalType":"string"}],"stateMutability":"view"},{"type":"function","name":"ownerOf","inputs":[{"name":"tokenId","type":"uint256","internalType":"uint256"}],"outputs":[{"name":"","type":"address","internalType":"address"}],"stateMutability":"view"},{"type":"function","name":"safeTransferFrom","inputs":[{"name":"from","type":"address","internalType":"address"},{"name":"to","type":"address","internalType":"address"},{"name":"tokenId","type":"uint256","internalType":"uint256"}],"outputs":[],"stateMutability":"nonpayable"},{"type":"function","name":"safeTransferFrom","inputs":[{"name":"from","type":"address","internalType":"address"},{"name":"to","type":"address","internalType":"address"},{"name":"tokenId","type":"uint256","internalType":"uint256"},{"name":"data","type":"bytes","internalType":"bytes"}],"outputs":[],"stateMutability":"nonpayable"},{"type":"function","name":"setApprovalForAll","inputs":[{"name":"operator","type":"address","internalType":"address"},{"name":"approved","type":"bool","internalType":"bool"}],"outputs":[],"stateMutability":"nonpayable"},{"type":"function","name":"supportsInterface","inputs":[{"name":"interfaceId","type":"bytes4","internalType":"bytes4"}],"outputs":[{"name":"","type":"bool","internalType":"bool"}],"stateMutability":"view"},{"type":"function","name":"symbol","inputs":[],"outputs":[{"name":"","type":"string","internalType":"string"}],"stateMutability":"view"},{"type":"function","name":"tokenURI","inputs":[{"name":"_tokenId","type":"uint256","internalType":"uint256"}],"outputs":[{"name":"","type":"string","internalType":"string"}],"stateMutability":"view"},{"type":"function","name":"transferFrom","inputs":[{"name":"from","type":"address","internalType":"address"},{"name":"to","type":"address","internalType":"address"},{"name":"tokenId","type":"uint256","internalType":"uint256"}],"outputs":[],"stateMutability":"nonpayable"},{"type":"event","name":"Approval","inputs":[{"name":"owner","type":"address","indexed":true,"internalType":"address"},{"name":"approved","type":"address","indexed":true,"internalType":"address"},{"name":"tokenId","type":"uint256","indexed":true,"internalType":"uint256"}],"anonymous":false},{"type":"event","name":"ApprovalForAll","inputs":[{"name":"owner","type":"address","indexed":true,"internalType":"address"},{"name":"operator","type":"address","indexed":true,"internalType":"address"},{"name":"approved","type":"bool","indexed":false,"internalType":"bool"}],"anonymous":false},{"type":"event","name":"Transfer","inputs":[{"name":"from","type":"address","indexed":true,"internalType":"address"},{"name":"to","type":"address","indexed":true,"internalType":"address"},{"name":"tokenId","type":"uint256","indexed":true,"internalType":"uint256"}],"anonymous":false},{"type":"error","name":"ERC721IncorrectOwner","inputs":[{"name":"sender","type":"address","internalType":"address"},{"name":"tokenId","type":"uint256","internalType":"uint256"},{"name":"owner","type":"address","internalType":"address"}]},{"type":"error","name":"ERC721InsufficientApproval","inputs":[{"name":"operator","type":"address","internalType":"address"},{"name":"tokenId","type":"uint256","internalType":"uint256"}]},{"type":"error","name":"ERC721InvalidApprover","inputs":[{"name":"approver","type":"address","internalType":"address"}]},{"type":"error","name":"ERC721InvalidOperator","inputs":[{"name":"operator","type":"address","internalType":"address"}]},{"type":"error","name":"ERC721InvalidOwner","inputs":[{"name":"owner","type":"address","internalType":"address"}]},{"type":"error","name":"ERC721InvalidReceiver","inputs":[{"name":"receiver","type":"address","internalType":"address"}]},{"type":"error","name":"ERC721InvalidSender","inputs":[{"name":"sender","type":"address","internalType":"address"}]},{"type":"error","name":"ERC721NonexistentToken","inputs":[{"name":"tokenId","type":"uint256","internalType":"uint256"}]}],"bytecode":{"object":"0x608060405234801561000f575f5ffd5b5060405161124238038061124283398101604081905261002e916100f4565b81815f61003b83826101dd565b50600161004882826101dd565b50505f60065550610297915050565b634e487b7160e01b5f52604160045260245ffd5b5f82601f83011261007a575f5ffd5b81516001600160401b0381111561009357610093610057565b604051601f8201601f19908116603f011681016001600160401b03811182821017156100c1576100c1610057565b6040528181528382016020018510156100d8575f5ffd5b8160208501602083015e5f918101602001919091529392505050565b5f5f60408385031215610105575f5ffd5b82516001600160401b0381111561011a575f5ffd5b6101268582860161006b565b602085015190935090506001600160401b03811115610143575f5ffd5b61014f8582860161006b565b9150509250929050565b600181811c9082168061016d57607f821691505b60208210810361018b57634e487b7160e01b5f52602260045260245ffd5b50919050565b601f8211156101d857805f5260205f20601f840160051c810160208510156101b65750805b601f840160051c820191505b818110156101d5575f81556001016101c2565b50505b505050565b81516001600160401b038111156101f6576101f6610057565b61020a816102048454610159565b84610191565b6020601f82116001811461023c575f83156102255750848201515b5f19600385901b1c1916600184901b1784556101d5565b5f84815260208120601f198516915b8281101561026b578785015182556020948501946001909201910161024b565b508482101561028857868401515f19600387901b60f8161c191681555b50505050600190811b01905550565b610f9e806102a45f395ff3fe608060405234801561000f575f5ffd5b50600436106100f0575f3560e01c806363abf41f11610093578063b88d4fde11610063578063b88d4fde146101ea578063c87b56dd146101fd578063da86f4a914610210578063e985e9c514610223575f5ffd5b806363abf41f146101aa57806370a08231146101bc57806395d89b41146101cf578063a22cb465146101d7575f5ffd5b8063095ea7b3116100ce578063095ea7b31461015c57806323b872dd1461017157806342842e0e146101845780636352211e14610197575f5ffd5b806301ffc9a7146100f457806306fdde031461011c578063081812fc14610131575b5f5ffd5b610107610102366004610af6565b610236565b60405190151581526020015b60405180910390f35b610124610287565b6040516101139190610b46565b61014461013f366004610b58565b610316565b6040516001600160a01b039091168152602001610113565b61016f61016a366004610b8a565b61033d565b005b61016f61017f366004610bb2565b61034c565b61016f610192366004610bb2565b6103da565b6101446101a5366004610b58565b6103f9565b6006545b604051908152602001610113565b6101ae6101ca366004610bec565b610403565b610124610448565b61016f6101e5366004610c05565b610457565b61016f6101f8366004610cc9565b610462565b61012461020b366004610b58565b61047a565b61016f61021e366004610d40565b610519565b610107610231366004610d85565b610557565b5f6001600160e01b031982166380ac58cd60e01b148061026657506001600160e01b03198216635b5e139f60e01b145b8061028157506301ffc9a760e01b6001600160e01b03198316145b92915050565b60605f805461029590610db6565b80601f01602080910402602001604051908101604052809291908181526020018280546102c190610db6565b801561030c5780601f106102e35761010080835404028352916020019161030c565b820191905f5260205f20905b8154815290600101906020018083116102ef57829003601f168201915b5050505050905090565b5f61032082610584565b505f828152600460205260409020546001600160a01b0316610281565b6103488282336105bc565b5050565b6001600160a01b03821661037a57604051633250574960e11b81525f60048201526024015b60405180910390fd5b5f6103868383336105c9565b9050836001600160a01b0316816001600160a01b0316146103d4576040516364283d7b60e01b81526001600160a01b0380861660048301526024820184905282166044820152606401610371565b50505050565b6103f483838360405180602001604052805f815250610462565b505050565b5f61028182610584565b5f6001600160a01b03821661042d576040516322718ad960e21b81525f6004820152602401610371565b506001600160a01b03165f9081526003602052604090205490565b60606001805461029590610db6565b6103483383836106bb565b61046d84848461034c565b6103d43385858585610759565b5f81815260076020526040902080546060919061049690610db6565b80601f01602080910402602001604051908101604052809291908181526020018280546104c290610db6565b801561050d5780601f106104e45761010080835404028352916020019161050d565b820191905f5260205f20905b8154815290600101906020018083116104f057829003601f168201915b50505050509050919050565b6006545f9081526007602052604090206105338282610e32565b5061054033600654610881565b60068054905f61054f83610eed565b919050555050565b6001600160a01b039182165f90815260056020908152604080832093909416825291909152205460ff1690565b5f818152600260205260408120546001600160a01b03168061028157604051637e27328960e01b815260048101849052602401610371565b6103f4838383600161089a565b5f828152600260205260408120546001600160a01b03908116908316156105f5576105f581848661099e565b6001600160a01b0381161561062f576106105f855f5f61089a565b6001600160a01b0381165f90815260036020526040902080545f190190555b6001600160a01b0385161561065d576001600160a01b0385165f908152600360205260409020805460010190555b5f8481526002602052604080822080546001600160a01b0319166001600160a01b0389811691821790925591518793918516917fddf252ad1be2c89b69c2b068fc378daa952ba7f163c4a11628f55a4df523b3ef91a4949350505050565b6001600160a01b0382166106ed57604051630b61174360e31b81526001600160a01b0383166004820152602401610371565b6001600160a01b038381165f81815260056020908152604080832094871680845294825291829020805460ff191686151590811790915591519182527f17307eab39ab6107e8899845ad3d59bd9653f200f220920489ca2b5937696c31910160405180910390a3505050565b6001600160a01b0383163b1561087a57604051630a85bd0160e11b81526001600160a01b0384169063150b7a029061079b908890889087908790600401610f11565b6020604051808303815f875af19250505080156107d5575060408051601f3d908101601f191682019092526107d291810190610f4d565b60015b61083c573d808015610802576040519150601f19603f3d011682016040523d82523d5f602084013e610807565b606091505b5080515f0361083457604051633250574960e11b81526001600160a01b0385166004820152602401610371565b805181602001fd5b6001600160e01b03198116630a85bd0160e11b1461087857604051633250574960e11b81526001600160a01b0385166004820152602401610371565b505b5050505050565b610348828260405180602001604052805f815250610a02565b80806108ae57506001600160a01b03821615155b1561096f575f6108bd84610584565b90506001600160a01b038316158015906108e95750826001600160a01b0316816001600160a01b031614155b80156108fc57506108fa8184610557565b155b156109255760405163a9fbf51f60e01b81526001600160a01b0384166004820152602401610371565b811561096d5783856001600160a01b0316826001600160a01b03167f8c5be1e5ebec7d5bd14f71427d1e84f3dd0314c0f7b2291e5b200ac8c7c3b92560405160405180910390a45b505b50505f90815260046020526040902080546001600160a01b0319166001600160a01b0392909216919091179055565b6109a9838383610a19565b6103f4576001600160a01b0383166109d757604051637e27328960e01b815260048101829052602401610371565b60405163177e802f60e01b81526001600160a01b038316600482015260248101829052604401610371565b610a0c8383610a7d565b6103f4335f858585610759565b5f6001600160a01b03831615801590610a755750826001600160a01b0316846001600160a01b03161480610a525750610a528484610557565b80610a7557505f828152600460205260409020546001600160a01b038481169116145b949350505050565b6001600160a01b038216610aa657604051633250574960e11b81525f6004820152602401610371565b5f610ab283835f6105c9565b90506001600160a01b038116156103f4576040516339e3563760e11b81525f6004820152602401610371565b6001600160e01b031981168114610af3575f5ffd5b50565b5f60208284031215610b06575f5ffd5b8135610b1181610ade565b9392505050565b5f81518084528060208401602086015e5f602082860101526020601f19601f83011685010191505092915050565b602081525f610b116020830184610b18565b5f60208284031215610b68575f5ffd5b5035919050565b80356001600160a01b0381168114610b85575f5ffd5b919050565b5f5f60408385031215610b9b575f5ffd5b610ba483610b6f565b946020939093013593505050565b5f5f5f60608486031215610bc4575f5ffd5b610bcd84610b6f565b9250610bdb60208501610b6f565b929592945050506040919091013590565b5f60208284031215610bfc575f5ffd5b610b1182610b6f565b5f5f60408385031215610c16575f5ffd5b610c1f83610b6f565b915060208301358015158114610c33575f5ffd5b809150509250929050565b634e487b7160e01b5f52604160045260245ffd5b5f5f67ffffffffffffffff841115610c6c57610c6c610c3e565b50604051601f19601f85018116603f0116810181811067ffffffffffffffff82111715610c9b57610c9b610c3e565b604052838152905080828401851015610cb2575f5ffd5b838360208301375f60208583010152509392505050565b5f5f5f5f60808587031215610cdc575f5ffd5b610ce585610b6f565b9350610cf360208601610b6f565b925060408501359150606085013567ffffffffffffffff811115610d15575f5ffd5b8501601f81018713610d25575f5ffd5b610d3487823560208401610c52565b91505092959194509250565b5f60208284031215610d50575f5ffd5b813567ffffffffffffffff811115610d66575f5ffd5b8201601f81018413610d76575f5ffd5b610a7584823560208401610c52565b5f5f60408385031215610d96575f5ffd5b610d9f83610b6f565b9150610dad60208401610b6f565b90509250929050565b600181811c90821680610dca57607f821691505b602082108103610de857634e487b7160e01b5f52602260045260245ffd5b50919050565b601f8211156103f457805f5260205f20601f840160051c81016020851015610e135750805b601f840160051c820191505b8181101561087a575f8155600101610e1f565b815167ffffffffffffffff811115610e4c57610e4c610c3e565b610e6081610e5a8454610db6565b84610dee565b6020601f821160018114610e92575f8315610e7b5750848201515b5f19600385901b1c1916600184901b17845561087a565b5f84815260208120601f198516915b82811015610ec15787850151825560209485019460019092019101610ea1565b5084821015610ede57868401515f19600387901b60f8161c191681555b50505050600190811b01905550565b5f60018201610f0a57634e487b7160e01b5f52601160045260245ffd5b5060010190565b6001600160a01b03858116825284166020820152604081018390526080606082018190525f90610f4390830184610b18565b9695505050505050565b5f60208284031215610f5d575f5ffd5b8151610b1181610ade56fea2646970667358221220034e61081ce6f8e6b8732a1fa9f2e372aa5448c4101cd2ca3a8bc48f0610dca564736f6c634300081c0033","linkReferences":{}},"methodIdentifiers":{"approve(address,uint256)":"095ea7b3","balanceOf(address)":"70a08231","getApproved(uint256)":"081812fc","getCounterToken()":"63abf41f","isApprovedForAll(address,address)":"e985e9c5","mintNft(string)":"da86f4a9","name()":"06fdde03","ownerOf(uint256)":"6352211e","safeTransferFrom(address,address,uint256)":"42842e0e","safeTransferFrom(address,address,uint256,bytes)":"b88d4fde","setApprovalForAll(address,bool)":"a22cb465","supportsInterface(bytes4)":"01ffc9a7","symbol()":"95d89b41","tokenURI(uint256)":"c87b56dd","transferFrom(address,address,uint256)":"23b872dd"},"id":45}