{"abi":[{"type":"constructor","inputs":[],"stateMutability":"nonpayable"},{"type":"function","name":"cancelListingNft","inputs":[{"name":"nftAddress","type":"address","internalType":"address"},{"name":"tokenId","type":"uint256","internalType":"uint256"}],"outputs":[],"stateMutability":"nonpayable"},{"type":"function","name":"getListingNft","inputs":[{"name":"nftAddress","type":"address","internalType":"address"},{"name":"tokenId","type":"uint256","internalType":"uint256"}],"outputs":[{"name":"","type":"tuple","internalType":"struct NFTMarketplace.Listing","components":[{"name":"price","type":"uint256","internalType":"uint256"},{"name":"seller","type":"address","internalType":"address"},{"name":"isListed","type":"bool","internalType":"bool"}]}],"stateMutability":"view"},{"type":"function","name":"listNft","inputs":[{"name":"nftAddress","type":"address","internalType":"address"},{"name":"tokenId","type":"uint256","internalType":"uint256"},{"name":"price","type":"uint256","internalType":"uint256"}],"outputs":[],"stateMutability":"nonpayable"},{"type":"function","name":"owner","inputs":[],"outputs":[{"name":"","type":"address","internalType":"address"}],"stateMutability":"view"},{"type":"function","name":"purchaseNft","inputs":[{"name":"nftAddress","type":"address","internalType":"address"},{"name":"tokenId","type":"uint256","internalType":"uint256"}],"outputs":[],"stateMutability":"payable"},{"type":"function","name":"renounceOwnership","inputs":[],"outputs":[],"stateMutability":"nonpayable"},{"type":"function","name":"transferOwnership","inputs":[{"name":"newOwner","type":"address","internalType":"address"}],"outputs":[],"stateMutability":"nonpayable"},{"type":"event","name":"NFTCancelled","inputs":[{"name":"nftAddress","type":"address","indexed":true,"internalType":"address"},{"name":"tokenId","type":"uint256","indexed":true,"internalType":"uint256"},{"name":"seller","type":"address","indexed":true,"internalType":"address"}],"anonymous":false},{"type":"event","name":"NFTListed","inputs":[{"name":"nftAddress","type":"address","indexed":true,"internalType":"address"},{"name":"tokenId","type":"uint256","indexed":true,"internalType":"uint256"},{"name":"seller","type":"address","indexed":true,"internalType":"address"},{"name":"price","type":"uint256","indexed":false,"internalType":"uint256"}],"anonymous":false},{"type":"event","name":"NFTSold","inputs":[{"name":"nftAddress","type":"address","indexed":true,"internalType":"address"},{"name":"tokenId","type":"uint256","indexed":true,"internalType":"uint256"},{"name":"buyer","type":"address","indexed":true,"internalType":"address"},{"name":"price","type":"uint256","indexed":false,"internalType":"uint256"}],"anonymous":false},{"type":"event","name":"OwnershipTransferred","inputs":[{"name":"previousOwner","type":"address","indexed":true,"internalType":"address"},{"name":"newOwner","type":"address","indexed":true,"internalType":"address"}],"anonymous":false},{"type":"error","name":"NFTMarketplace__InsufficientOrExcessFundsToBuyNFT","inputs":[]},{"type":"error","name":"NFTMarketplace__NftAlreadyListed","inputs":[{"name":"nftAddress","type":"address","internalType":"address"},{"name":"tokenId","type":"uint256","internalType":"uint256"}]},{"type":"error","name":"NFTMarketplace__NftNotListed","inputs":[{"name":"nftAddress","type":"address","internalType":"address"},{"name":"tokenId","type":"uint256","internalType":"uint256"}]},{"type":"error","name":"NFTMarketplace__NotApproved","inputs":[]},{"type":"error","name":"NFTMarketplace__NotOwner","inputs":[{"name":"nftAddress","type":"address","internalType":"address"},{"name":"tokenId","type":"uint256","internalType":"uint256"},{"name":"spender","type":"address","internalType":"address"}]},{"type":"error","name":"NFTMarketplace__PriceMustBeGreaterThanZero","inputs":[]},{"type":"error","name":"NFTMarketplace__PurchaseFailed","inputs":[]},{"type":"error","name":"OwnableInvalidOwner","inputs":[{"name":"owner","type":"address","internalType":"address"}]},{"type":"error","name":"OwnableUnauthorizedAccount","inputs":[{"name":"account","type":"address","internalType":"address"}]},{"type":"error","name":"ReentrancyGuardReentrantCall","inputs":[]}],"bytecode":{"object":"0x6080604052348015600e575f5ffd5b5060015f553380603757604051631e4fbdf760e01b81525f600482015260240160405180910390fd5b603e816043565b506094565b600180546001600160a01b038381166001600160a01b0319831681179093556040519116919082907f8be0079c531659141344cd1fd0a4f28419497f9722a3daafe3b4186f6b6457e0905f90a35050565b610ad4806100a15f395ff3fe60806040526004361061006e575f3560e01c8063c922b17c1161004c578063c922b17c146100c7578063e8a24b01146100e6578063ee4fdcb614610105578063f2fde38b14610151575f5ffd5b80635a0b17b014610072578063715018a6146100875780638da5cb5b1461009b575b5f5ffd5b610085610080366004610a05565b610170565b005b348015610092575f5ffd5b506100856103b7565b3480156100a6575f5ffd5b506001546040516001600160a01b0390911681526020015b60405180910390f35b3480156100d2575f5ffd5b506100856100e1366004610a2f565b6103ca565b3480156100f1575f5ffd5b50610085610100366004610a05565b6106a1565b348015610110575f5ffd5b5061012461011f366004610a05565b610833565b60408051825181526020808401516001600160a01b031690820152918101511515908201526060016100be565b34801561015c575f5ffd5b5061008561016b366004610a61565b61090e565b61017861094b565b6001600160a01b0382165f90815260026020908152604080832084845290915281206001015483918391600160a01b900460ff16151590036101e45760405163a116141b60e01b81526001600160a01b0383166004820152602481018290526044015b60405180910390fd5b6001600160a01b038481165f9081526002602090815260408083208784528252918290208251606081018452815480825260019092015494851692810192909252600160a01b90930460ff161515918101919091529034146102595760405163ad84378d60e01b815260040160405180910390fd5b6020810151604051632142170760e11b81526001600160a01b03918216600482015233602482015260448101869052908616906342842e0e906064015f604051808303815f87803b1580156102ac575f5ffd5b505af11580156102be573d5f5f3e3d5ffd5b505050505f81602001516001600160a01b0316346040515f6040518083038185875af1925050503d805f811461030f576040519150601f19603f3d011682016040523d82523d5f602084013e610314565b606091505b505090508061033657604051630fa8722960e11b815260040160405180910390fd5b6001600160a01b0386165f8181526002602090815260408083208984528252808320928355600190920180546001600160a81b0319169055845191519182523392889290917f5f56b86d7e7069e97b2fb6f4bbfe88ee51f79e56760d02a0ba2114eb274600f6910160405180910390a4505050506103b360015f55565b5050565b6103bf610973565b6103c85f6109a0565b565b6040516331a9108f60e11b815260048101839052839083903390839082906001600160a01b03831690636352211e90602401602060405180830381865afa158015610417573d5f5f3e3d5ffd5b505050506040513d601f19601f8201168201806040525081019061043b9190610a83565b6001600160a01b03161461047c576040516301ce7e6b60e41b81526001600160a01b03808616600483015260248201859052831660448201526064016101db565b6001600160a01b0387165f908152600260209081526040808320898452909152902060019081015488918891600160a01b900460ff16151590036104e55760405163c239876160e01b81526001600160a01b0383166004820152602481018290526044016101db565b5f8711610505576040516375b4024b60e01b815260040160405180910390fd5b60405163020604bf60e21b815260048101899052899030906001600160a01b0383169063081812fc90602401602060405180830381865afa15801561054c573d5f5f3e3d5ffd5b505050506040513d601f19601f820116820180604052508101906105709190610a83565b6001600160a01b031614610597576040516361e31ba160e01b815260040160405180910390fd5b6040518060600160405280898152602001336001600160a01b031681526020016001151581525060025f8c6001600160a01b03166001600160a01b031681526020019081526020015f205f8b81526020019081526020015f205f820151815f01556020820151816001015f6101000a8154816001600160a01b0302191690836001600160a01b0316021790555060408201518160010160146101000a81548160ff021916908315150217905550905050336001600160a01b0316898b6001600160a01b03167f392a0f172cb29479635d0b2219b2f96ef24f74dfdf328cb09f1496efe6cfddbe8b60405161068d91815260200190565b60405180910390a450505050505050505050565b6106a961094b565b6040516331a9108f60e11b815260048101829052829082903390839082906001600160a01b03831690636352211e90602401602060405180830381865afa1580156106f6573d5f5f3e3d5ffd5b505050506040513d601f19601f8201168201806040525081019061071a9190610a83565b6001600160a01b03161461075b576040516301ce7e6b60e41b81526001600160a01b03808616600483015260248201859052831660448201526064016101db565b6001600160a01b0386165f90815260026020908152604080832088845290915281206001015487918791600160a01b900460ff16151590036107c25760405163a116141b60e01b81526001600160a01b0383166004820152602481018290526044016101db565b6001600160a01b0388165f8181526002602090815260408083208b845290915280822082815560010180546001600160a81b03191690555133928a9290917f09903d90802b3f2aa1934d28373004dc4cd89ebb976e615dc2570117cf0a5d8c9190a45050505050506103b360015f55565b604080516060810182525f80825260208201819052918101919091526001600160a01b0383165f90815260026020908152604080832085845290915281206001015484918491600160a01b900460ff16151590036108b65760405163a116141b60e01b81526001600160a01b0383166004820152602481018290526044016101db565b5050506001600160a01b039182165f9081526002602090815260408083209383529281529082902082516060810184528154815260019091015493841691810191909152600160a01b90920460ff1615159082015290565b610916610973565b6001600160a01b03811661093f57604051631e4fbdf760e01b81525f60048201526024016101db565b610948816109a0565b50565b60025f540361096d57604051633ee5aeb560e01b815260040160405180910390fd5b60025f55565b6001546001600160a01b031633146103c85760405163118cdaa760e01b81523360048201526024016101db565b600180546001600160a01b038381166001600160a01b0319831681179093556040519116919082907f8be0079c531659141344cd1fd0a4f28419497f9722a3daafe3b4186f6b6457e0905f90a35050565b6001600160a01b0381168114610948575f5ffd5b5f5f60408385031215610a16575f5ffd5b8235610a21816109f1565b946020939093013593505050565b5f5f5f60608486031215610a41575f5ffd5b8335610a4c816109f1565b95602085013595506040909401359392505050565b5f60208284031215610a71575f5ffd5b8135610a7c816109f1565b9392505050565b5f60208284031215610a93575f5ffd5b8151610a7c816109f156fea264697066735822122005caca85cad46ba9c1415e55cab4e8f2e9258751949edb6e5bb02c8e7be557ac64736f6c634300081c0033","linkReferences":{}},"methodIdentifiers":{"cancelListingNft(address,uint256)":"e8a24b01","getListingNft(address,uint256)":"ee4fdcb6","listNft(address,uint256,uint256)":"c922b17c","owner()":"8da5cb5b","purchaseNft(address,uint256)":"5a0b17b0","renounceOwnership()":"715018a6","transferOwnership(address)":"f2fde38b"},"id":46}